{
  "address": "0xD872d9548990460465cC6f9806cB960cd6EFa36F",
  "abi": [
    {
      "inputs": [
        {
          "internalType": "address",
          "name": "_poolAddress",
          "type": "address"
        }
      ],
      "stateMutability": "nonpayable",
      "type": "constructor"
    },
    {
      "inputs": [
        {
          "internalType": "address",
          "name": "tokenAddress",
          "type": "address"
        },
        {
          "internalType": "uint256",
          "name": "units",
          "type": "uint256"
        },
        {
          "internalType": "address",
          "name": "collateralAddress",
          "type": "address"
        },
        {
          "internalType": "address",
          "name": "user",
          "type": "address"
        },
        {
          "internalType": "uint256",
          "name": "targetHealth",
          "type": "uint256"
        }
      ],
      "name": "_repayAndWithdrawCollateral",
      "outputs": [],
      "stateMutability": "nonpayable",
      "type": "function"
    },
    {
      "inputs": [
        {
          "internalType": "address",
          "name": "tokenAddress",
          "type": "address"
        },
        {
          "internalType": "uint256",
          "name": "units",
          "type": "uint256"
        },
        {
          "internalType": "address",
          "name": "collateralAddress",
          "type": "address"
        },
        {
          "internalType": "uint256",
          "name": "flashCollateral",
          "type": "uint256"
        },
        {
          "internalType": "uint256",
          "name": "userCollateral",
          "type": "uint256"
        },
        {
          "internalType": "address",
          "name": "user",
          "type": "address"
        }
      ],
      "name": "_suppllyCollateralAndBorrow",
      "outputs": [],
      "stateMutability": "nonpayable",
      "type": "function"
    },
    {
      "inputs": [
        {
          "internalType": "uint256",
          "name": "healthFactor",
          "type": "uint256"
        },
        {
          "internalType": "uint256",
          "name": "totalBorrow",
          "type": "uint256"
        },
        {
          "internalType": "uint256",
          "name": "liquidationThreshold",
          "type": "uint256"
        }
      ],
      "name": "calculateWithdraw",
      "outputs": [
        {
          "internalType": "uint256",
          "name": "",
          "type": "uint256"
        }
      ],
      "stateMutability": "pure",
      "type": "function"
    },
    {
      "inputs": [
        {
          "internalType": "address",
          "name": "tokenAddress",
          "type": "address"
        },
        {
          "internalType": "uint256",
          "name": "amount",
          "type": "uint256"
        }
      ],
      "name": "callApprove",
      "outputs": [],
      "stateMutability": "nonpayable",
      "type": "function"
    },
    {
      "inputs": [
        {
          "internalType": "address",
          "name": "tokenAddress",
          "type": "address"
        },
        {
          "internalType": "uint256",
          "name": "amount",
          "type": "uint256"
        }
      ],
      "name": "callTransferFrom",
      "outputs": [],
      "stateMutability": "nonpayable",
      "type": "function"
    },
    {
      "inputs": [
        {
          "internalType": "address",
          "name": "tokenAddress",
          "type": "address"
        },
        {
          "internalType": "uint256",
          "name": "units",
          "type": "uint256"
        },
        {
          "internalType": "uint256",
          "name": "amount",
          "type": "uint256"
        }
      ],
      "name": "depositToken",
      "outputs": [],
      "stateMutability": "nonpayable",
      "type": "function"
    },
    {
      "inputs": [],
      "name": "getPoolAddress",
      "outputs": [],
      "stateMutability": "view",
      "type": "function"
    },
    {
      "inputs": [
        {
          "internalType": "address",
          "name": "user",
          "type": "address"
        }
      ],
      "name": "getUserData",
      "outputs": [],
      "stateMutability": "view",
      "type": "function"
    },
    {
      "inputs": [],
      "name": "poolAddress",
      "outputs": [
        {
          "internalType": "contract IPool",
          "name": "",
          "type": "address"
        }
      ],
      "stateMutability": "view",
      "type": "function"
    },
    {
      "inputs": [
        {
          "internalType": "address",
          "name": "tokenAddress",
          "type": "address"
        },
        {
          "internalType": "uint256",
          "name": "totalAmount",
          "type": "uint256"
        }
      ],
      "name": "withdrawToken",
      "outputs": [],
      "stateMutability": "nonpayable",
      "type": "function"
    }
  ],
  "transactionHash": "0x102058b19784cbdec3f84c39136417ade1719c07d8bfd5bf54783a2bed7f1b39",
  "args": [
    "0x6C9fB0D5bD9429eb9Cd96B85B81d872281771E6B"
  ],
  "numDeployments": 4,
  "solcInputHash": "ecba5d6b28b297ddf2e144ffdb71689a",
  "bytecode": "0x60806040523480156200001157600080fd5b506040516200154a3803806200154a8339818101604052810190620000379190620000e8565b806000806101000a81548173ffffffffffffffffffffffffffffffffffffffff021916908373ffffffffffffffffffffffffffffffffffffffff160217905550506200011a565b600080fd5b600073ffffffffffffffffffffffffffffffffffffffff82169050919050565b6000620000b08262000083565b9050919050565b620000c281620000a3565b8114620000ce57600080fd5b50565b600081519050620000e281620000b7565b92915050565b6000602082840312156200010157620001006200007e565b5b60006200011184828501620000d1565b91505092915050565b611420806200012a6000396000f3fe608060405234801561001057600080fd5b506004361061009e5760003560e01c80639e281a98116100665780639e281a9814610131578063e4085dec1461014d578063ea70080f14610169578063f586c6d914610199578063ffc9896b146101a35761009e565b80630ae11dbb146100a35780631755ff21146100bf578063620a2262146100dd57806370586114146100f957806399c6d2de14610115575b600080fd5b6100bd60048036038101906100b89190610bf3565b6101bf565b005b6100c7610244565b6040516100d49190610c92565b60405180910390f35b6100f760048036038101906100f29190610cad565b610268565b005b610113600480360381019061010e9190610d28565b61051f565b005b61012f600480360381019061012a9190610db5565b6106ed565b005b61014b60048036038101906101469190610bf3565b6108a4565b005b61016760048036038101906101629190610bf3565b610949565b005b610183600480360381019061017e9190610e08565b6109ec565b6040516101909190610e6a565b60405180910390f35b6101a1610a25565b005b6101bd60048036038101906101b89190610e85565b610ab7565b005b8173ffffffffffffffffffffffffffffffffffffffff166323b872dd3330846040518463ffffffff1660e01b81526004016101fc93929190610ec1565b6020604051808303816000875af115801561021b573d6000803e3d6000fd5b505050506040513d601f19601f8201168201806040525081019061023f9190610f30565b505050565b60008054906101000a900473ffffffffffffffffffffffffffffffffffffffff1681565b60008054906101000a900473ffffffffffffffffffffffffffffffffffffffff1673ffffffffffffffffffffffffffffffffffffffff1663573ade8184866002866040518563ffffffff1660e01b81526004016102c89493929190610f98565b6020604051808303816000875af11580156102e7573d6000803e3d6000fd5b505050506040513d601f19601f8201168201806040525081019061030b9190610ff2565b5060008060008060009054906101000a900473ffffffffffffffffffffffffffffffffffffffff1673ffffffffffffffffffffffffffffffffffffffff1663bf92857c306040518263ffffffff1660e01b815260040161036b919061101f565b60c060405180830381865afa158015610388573d6000803e3d6000fd5b505050506040513d601f19601f820116820180604052508101906103ac919061103a565b505093505092509250600082116104635760008054906101000a900473ffffffffffffffffffffffffffffffffffffffff1673ffffffffffffffffffffffffffffffffffffffff166369328dec8985886040518463ffffffff1660e01b815260040161041a939291906110c7565b6020604051808303816000875af1158015610439573d6000803e3d6000fd5b505050506040513d601f19601f8201168201806040525081019061045d9190610ff2565b50610515565b60006104708584846109ec565b905060008054906101000a900473ffffffffffffffffffffffffffffffffffffffff1673ffffffffffffffffffffffffffffffffffffffff166369328dec8a83896040518463ffffffff1660e01b81526004016104cf939291906110c7565b6020604051808303816000875af11580156104ee573d6000803e3d6000fd5b505050506040513d601f19601f820116820180604052508101906105129190610ff2565b50505b5050505050505050565b6000828461052d919061112d565b905060008054906101000a900473ffffffffffffffffffffffffffffffffffffffff1673ffffffffffffffffffffffffffffffffffffffff1663617ba03788838560006040518563ffffffff1660e01b815260040161058f94939291906111cc565b600060405180830381600087803b1580156105a957600080fd5b505af11580156105bd573d6000803e3d6000fd5b5050505060008054906101000a900473ffffffffffffffffffffffffffffffffffffffff1673ffffffffffffffffffffffffffffffffffffffff16635a3b74b98860016040518363ffffffff1660e01b815260040161061d929190611220565b600060405180830381600087803b15801561063757600080fd5b505af115801561064b573d6000803e3d6000fd5b5050505060008054906101000a900473ffffffffffffffffffffffffffffffffffffffff1673ffffffffffffffffffffffffffffffffffffffff1663a415bcad868860026000876040518663ffffffff1660e01b81526004016106b2959493929190611249565b600060405180830381600087803b1580156106cc57600080fd5b505af11580156106e0573d6000803e3d6000fd5b5050505050505050505050565b8273ffffffffffffffffffffffffffffffffffffffff166323b872dd3330846040518463ffffffff1660e01b815260040161072a93929190610ec1565b6020604051808303816000875af1158015610749573d6000803e3d6000fd5b505050506040513d601f19601f8201168201806040525081019061076d9190610f30565b508273ffffffffffffffffffffffffffffffffffffffff1663095ea7b360008054906101000a900473ffffffffffffffffffffffffffffffffffffffff16836040518363ffffffff1660e01b81526004016107c992919061129c565b6020604051808303816000875af11580156107e8573d6000803e3d6000fd5b505050506040513d601f19601f8201168201806040525081019061080c9190610f30565b5060008054906101000a900473ffffffffffffffffffffffffffffffffffffffff1673ffffffffffffffffffffffffffffffffffffffff1663617ba03784843060006040518563ffffffff1660e01b815260040161086d94939291906111cc565b600060405180830381600087803b15801561088757600080fd5b505af115801561089b573d6000803e3d6000fd5b50505050505050565b60008054906101000a900473ffffffffffffffffffffffffffffffffffffffff1673ffffffffffffffffffffffffffffffffffffffff166369328dec8383336040518463ffffffff1660e01b8152600401610901939291906110c7565b6020604051808303816000875af1158015610920573d6000803e3d6000fd5b505050506040513d601f19601f820116820180604052508101906109449190610ff2565b505050565b8173ffffffffffffffffffffffffffffffffffffffff1663095ea7b360008054906101000a900473ffffffffffffffffffffffffffffffffffffffff16836040518363ffffffff1660e01b81526004016109a492919061129c565b6020604051808303816000875af11580156109c3573d6000803e3d6000fd5b505050506040513d601f19601f820116820180604052508101906109e79190610f30565b505050565b6000806064836109fc91906112f4565b90506000818587610a0d9190611325565b610a1791906112f4565b905080925050509392505050565b60008054906101000a900473ffffffffffffffffffffffffffffffffffffffff1673ffffffffffffffffffffffffffffffffffffffff16630542975c6040518163ffffffff1660e01b8152600401602060405180830381865afa158015610a90573d6000803e3d6000fd5b505050506040513d601f19601f82011682018060405250810190610ab491906113bd565b50565b60008054906101000a900473ffffffffffffffffffffffffffffffffffffffff1673ffffffffffffffffffffffffffffffffffffffff1663bf92857c826040518263ffffffff1660e01b8152600401610b10919061101f565b60c060405180830381865afa158015610b2d573d6000803e3d6000fd5b505050506040513d601f19601f82011682018060405250810190610b51919061103a565b50505050505050565b600080fd5b600073ffffffffffffffffffffffffffffffffffffffff82169050919050565b6000610b8a82610b5f565b9050919050565b610b9a81610b7f565b8114610ba557600080fd5b50565b600081359050610bb781610b91565b92915050565b6000819050919050565b610bd081610bbd565b8114610bdb57600080fd5b50565b600081359050610bed81610bc7565b92915050565b60008060408385031215610c0a57610c09610b5a565b5b6000610c1885828601610ba8565b9250506020610c2985828601610bde565b9150509250929050565b6000819050919050565b6000610c58610c53610c4e84610b5f565b610c33565b610b5f565b9050919050565b6000610c6a82610c3d565b9050919050565b6000610c7c82610c5f565b9050919050565b610c8c81610c71565b82525050565b6000602082019050610ca76000830184610c83565b92915050565b600080600080600060a08688031215610cc957610cc8610b5a565b5b6000610cd788828901610ba8565b9550506020610ce888828901610bde565b9450506040610cf988828901610ba8565b9350506060610d0a88828901610ba8565b9250506080610d1b88828901610bde565b9150509295509295909350565b60008060008060008060c08789031215610d4557610d44610b5a565b5b6000610d5389828a01610ba8565b9650506020610d6489828a01610bde565b9550506040610d7589828a01610ba8565b9450506060610d8689828a01610bde565b9350506080610d9789828a01610bde565b92505060a0610da889828a01610ba8565b9150509295509295509295565b600080600060608486031215610dce57610dcd610b5a565b5b6000610ddc86828701610ba8565b9350506020610ded86828701610bde565b9250506040610dfe86828701610bde565b9150509250925092565b600080600060608486031215610e2157610e20610b5a565b5b6000610e2f86828701610bde565b9350506020610e4086828701610bde565b9250506040610e5186828701610bde565b9150509250925092565b610e6481610bbd565b82525050565b6000602082019050610e7f6000830184610e5b565b92915050565b600060208284031215610e9b57610e9a610b5a565b5b6000610ea984828501610ba8565b91505092915050565b610ebb81610b7f565b82525050565b6000606082019050610ed66000830186610eb2565b610ee36020830185610eb2565b610ef06040830184610e5b565b949350505050565b60008115159050919050565b610f0d81610ef8565b8114610f1857600080fd5b50565b600081519050610f2a81610f04565b92915050565b600060208284031215610f4657610f45610b5a565b5b6000610f5484828501610f1b565b91505092915050565b6000819050919050565b6000610f82610f7d610f7884610f5d565b610c33565b610bbd565b9050919050565b610f9281610f67565b82525050565b6000608082019050610fad6000830187610eb2565b610fba6020830186610e5b565b610fc76040830185610f89565b610fd46060830184610eb2565b95945050505050565b600081519050610fec81610bc7565b92915050565b60006020828403121561100857611007610b5a565b5b600061101684828501610fdd565b91505092915050565b60006020820190506110346000830184610eb2565b92915050565b60008060008060008060c0878903121561105757611056610b5a565b5b600061106589828a01610fdd565b965050602061107689828a01610fdd565b955050604061108789828a01610fdd565b945050606061109889828a01610fdd565b93505060806110a989828a01610fdd565b92505060a06110ba89828a01610fdd565b9150509295509295509295565b60006060820190506110dc6000830186610eb2565b6110e96020830185610e5b565b6110f66040830184610eb2565b949350505050565b7f4e487b7100000000000000000000000000000000000000000000000000000000600052601160045260246000fd5b600061113882610bbd565b915061114383610bbd565b9250827fffffffffffffffffffffffffffffffffffffffffffffffffffffffffffffffff03821115611178576111776110fe565b5b828201905092915050565b6000819050919050565b600061ffff82169050919050565b60006111b66111b16111ac84611183565b610c33565b61118d565b9050919050565b6111c68161119b565b82525050565b60006080820190506111e16000830187610eb2565b6111ee6020830186610e5b565b6111fb6040830185610eb2565b61120860608301846111bd565b95945050505050565b61121a81610ef8565b82525050565b60006040820190506112356000830185610eb2565b6112426020830184611211565b9392505050565b600060a08201905061125e6000830188610eb2565b61126b6020830187610e5b565b6112786040830186610f89565b61128560608301856111bd565b6112926080830184610eb2565b9695505050505050565b60006040820190506112b16000830185610eb2565b6112be6020830184610e5b565b9392505050565b7f4e487b7100000000000000000000000000000000000000000000000000000000600052601260045260246000fd5b60006112ff82610bbd565b915061130a83610bbd565b92508261131a576113196112c5565b5b828204905092915050565b600061133082610bbd565b915061133b83610bbd565b9250817fffffffffffffffffffffffffffffffffffffffffffffffffffffffffffffffff0483118215151615611374576113736110fe565b5b828202905092915050565b600061138a82610b7f565b9050919050565b61139a8161137f565b81146113a557600080fd5b50565b6000815190506113b781611391565b92915050565b6000602082840312156113d3576113d2610b5a565b5b60006113e1848285016113a8565b9150509291505056fea2646970667358221220c6aa8f8dd84fe8b5d1a844f21037c63ec017fbc8e1eae4f338a70694e8790a9a64736f6c634300080a0033",
  "devdoc": {
    "kind": "dev",
    "methods": {},
    "version": 1
  },
  "userdoc": {
    "kind": "user",
    "methods": {},
    "version": 1
  },
  "storageLayout": {
    "storage": [
      {
        "astId": 1285,
        "contract": "contracts/AaveIntegrationHeler.sol:AaveIntegrationHelper",
        "label": "poolAddress",
        "offset": 0,
        "slot": "0",
        "type": "t_contract(IPool)636"
      }
    ],
    "types": {
      "t_contract(IPool)636": {
        "encoding": "inplace",
        "label": "contract IPool",
        "numberOfBytes": "20"
      }
    }
  }
}